:100000000C94E4000C940C010C940C010C940C0165
:100010000C940C010C940C010C940C010C940C012C
:100020000C940C010C940C010C948A100C941C0F71
:100030000C940C010C940C010C940C010C940C010C
:100040000C94FD010C940C010C940C010C940C010B
:100050000C940C010C940C010C940C010C94811167
:100060000C940C010C940C010C940C010C940C01DC
:100070000C940C010C940C010C940C010C940C01CC
:100080000C940C010C940C010C940C010C940C01BC
:100090000C940C010C940C010C940C010C940C01AC
:1000A0000C940C010C940C010C940C017E0B810B34
:1000B000700B740B7A0BA20BA20BA20B850B890B96
:1000C0008D0B930B970BA20B9D0B000000020009F8
:1000D0000F0000030401000C0000000000000000FD
:1000E00000000000000000000408020110408040F1
:1000F000102040804080080204018040201002014E
:10010000108010204040040404040403040502028B
:1001100002020403020202020606060606060404A0
:100120000202020400000000250028002B002E001F
:10013000310000000000240027002A002D003000BC
:10014000120100020000004041233780000101023B
:10015000000112010002EF0201404123378000013B
:100160000102000141726475696E6F204C4C4300BE
:1001700041726475696E6F204D6963726F0004038C
:100180000904080B00020202010009040000010238
:1001900002000005240010010524010101042402CD
:1001A000060524060001070581031000400904012B
:1001B00000020A0000000705020240000007058354
:1001C0000240000047024D1311241FBECFEFDAE0BA
:1001D000DEBFCDBF11E0A0E0B1E0ECE6FAE202C084
:1001E00005900D92AA33B107D9F722E0AAE3B1E056
:1001F00001C01D92AA32B207E1F711E0C8ECD1E0CC
:1002000004C02297FE010E94B013C43CD107C9F775
:100210000E946A110C9434150C9400001092800016
:1002200082E4809381001092820080E286BB8093FA
:100230006F00089560E084E00E94A30B61E084E019
:100240000E94DC0B61E08DE00C94A30B0E941A016C
:100250000E940E0160E08DE491E00C9490094F92B1
:100260005F926F927F92AF92BF92CF92DF92EF92A6
:10027000FF920F931F93CF93DF93865094402C01EE
:10028000662457FC6094762C1F921F92D3E0DF9374
:10029000C8EECF93A12CB12C650118EEE12E13E02E
:1002A000F12E00E010E020E030E0A901C301B2012E
:1002B0000E9422110F900F900F900F9097FD25C074
:1002C0001F921F92DF93CF9320E030E0A901C3017A
:1002D000B2010E9422110F900F900F900F90693E73
:1002E000734081059105A4F41F921F92DF93CF9371
:1002F00020E030E0A901C301B2010E9422110F9059
:100300000F900F900F90CB0105C080E090E002C0ED
:1003100088EE93E0DF91CF911F910F91FF90EF90C6
:10032000DF90CF90BF90AF907F906F905F904F9095
:10033000089580913D0190913E010E942F01BC01E2
:100340008DE491E00E94E70980913F019091400186
:100350000E942F01BC018DE491E00E94EF09809181
:10036000490190914A010E942F01BC018DE491E066
:100370000E94F70980914B0190914C010E942F013E
:10038000BC018DE491E00E94FF09809141019091B0
:1003900042010E942F01BC018DE491E00E940F0AEE
:1003A00080914301909144010E942F01BC018DE492
:1003B00091E00E94070A809145019091460141E039
:1003C0008B3F95400CF440E060E08DE491E00E94AA
:1003D000E109809147019091480141E08B3F9540B0
:1003E0000CF440E061E08DE491E00C94E1090E949E
:1003F00099018DE491E00C94FE071F920F920FB6C5
:100400000F9211242F933F934F935F938F939F935A
:10041000EF93FF933091860020918700832F922FD6
:1004200020913B0130913C01AC01421B530B9A01DE
:1004300090933C0180933B01213757E1350718F039
:1004400010923A0117C040913A01C9018951964072
:10045000873B9B4060F4483050F4E42FF0E0369541
:100460002795EE0FFF1FE35CFE4F318320834F5F24
:1004700040933A01FF91EF919F918F915F914F913E
:100480003F912F910F900FBE0F901F9018958F9254
:10049000AF92CF92EF920F931F921F921F9281E023
:1004A0008F938F931F928F9388248394A12CCC24B5
:1004B000C394EE24E39400E022E044E063E08DE4A2
:1004C00091E00E9471028DB79EB707960FB6F8941F
:1004D0009EBF0FBE8DBF0F91EF90CF90AF908F90CA
:1004E00008952F923F924F925F926F927F928F92D8
:1004F0009F92AF92BF92CF92DF92EF92FF920F93B3
:100500001F93CF93DF93CDB7DEB7C759D1090FB68D
:10051000F894DEBF0FBECDBF3C01DC015B961C92A0
:100520001E925A975E961C925E9793961C921E920C
:1005300092978FEF93E095969C938E9394979796CE
:100540001C921E92969799969C938E9398979B9641
:100550001C921E929A979D969C938E939C979F9621
:100560001C921E929E97D1969C938E93D097D39671
:100570001C921E92D297D5969C938E93D497D79621
:100580001C921E92D697D9969C938E93D897DB9601
:100590001C921E92DA97DD969C938E93DC97DF96E1
:1005A0001C921E92DE97F301E05CFF4F91838083E3
:1005B0003296118210823296918380833296118214
:1005C0001082329691838083329611821082329605
:1005D0009183808332966083F301258F078FCC202F
:1005E00011F082E001C080E0382F3E29AA2011F0EE
:1005F00084E001C080E0832B882011F038E001C046
:1006000030E0382BC455DF4FF881CC5AD040FF235F
:1006100011F090E101C090E0932BC355DF4F38817A
:10062000CD5AD040332311F080E201C080E0892B05
:10063000D30190968C93C155DF4FB881CF5AD040EB
:10064000BB2311F032E001C030E0C255DF4F98818A
:10065000CE5AD040932BC055DF4FE881C05BD040CD
:10066000EE2311F034E001C030E0392BCF54DF4FDE
:10067000F881C15BD040FF2311F098E001C090E009
:10068000932BCE54DF4F3881C25BD040332311F01F
:1006900080E101C080E0892BD30191968C93822F59
:1006A000877019F098E0981B01C090E0C455DF4FA7
:1006B0003881CC5AD040C355DF4FB881CD5AD04095
:1006C0003B0F380D3A0D3C0D3E0DCF54DF4F788176
:1006D000C15BD040CE54DF4FE881C25BD0407E0F7B
:1006E000C055DF4FF881C05BD0407F0FC155DF4F51
:1006F0005881CF5AD040750FC255DF4F8881CE5AEE
:10070000D040780F932E970E990CE5E0E98381E0B5
:100710008A8359E05B834C8341EA4D838E8345E8AD
:100720004F836887222351F1E9875A8749E14B8734
:100730008C8749E24D872E8745E14F87188A45E22D
:10074000498B8A8B65E76B8B8C8B55E95D8B2E8B88
:1007500045E54F8B188E45E6498F1A8E41E84B8F41
:10076000E2E0EC8F992369F06D8F8E8F5F8F98A3F5
:1007700049A383E08AA342E250E005C048E050E08C
:1007800002C04CE150E0311103C0002309F4EEC176
:10079000E1E0F0E0EC0FFD1FE40FF51F85E0808342
:1007A000CA01029661E0FE01E40FF51F6283002397
:1007B00009F4EDC0E1E0F0E0EC0FFD1FE80FF91FD8
:1007C00089E0B82EB08299E3592EFE01E40FF51F9F
:1007D0005482E5E14E2EFE01E40FF51F4582FE0135
:1007E000E40FF51F1682F5E23F2EFE01E40FF51F20
:1007F0003782A7E02A2EFE01E40FF51F2086FE01B6
:10080000E40FF51F95E39187FE01E40FF51F1286B3
:10081000FE01E40FF51FA6E4A387FE01E40FF51F18
:10082000BBE3B487FE01E40FF51F6587FE01E40F0B
:10083000F51F85E68687FE01E40FF51F94E1978793
:10084000B5E7DB2EFE01E40FF51FD08A14E0F12E90
:10085000FE01E40FF51FF18A15E9FE01E40FF51F13
:10086000128BFE01E40FF51F638B81E8FE01E40F9C
:10087000F51F848BFA01759692E0DE01A40FB51F77
:1008800055969C93A1E0B0E0AC0FBD1FEA0FFB1F93
:10089000023008F45AC0B082E7E1F0E0EC0FFD1F2F
:1008A000E40FF51F5082FE01E40FF51F408EFE019C
:1008B000E40FF51F118EFE01E40FF51F328EFE01CD
:1008C000E40FF51F238EFE01E40FF51FB5E3B48F8F
:1008D000FE01E40FF51F158EFE01E40FF51FA6E4DF
:1008E000A68FFE01E40FF51FBBE3B78FFE01E40FF7
:1008F000F51F60A3FE01E40FF51FA5E6A1A3FE010D
:10090000E40FF51FB4E1B2A3FE01E40FF51FD3A27B
:10091000FE01E40FF51FF4A2FE01E40FF51F15A37D
:10092000FE01E40FF51F66A3FA01B796DE01A40FDE
:10093000B51F97968C93485D5F4FA1E0B0E0AC0F78
:10094000BD1FEA0FFB1F908323C0D082E7E1F0E0D8
:10095000EC0FFD1FE40FF51F6083FE01E40FF51F90
:10096000108FFE01E40FF51FF18EFA017A96DE0179
:10097000A40FB51F5A968C93455E5F4F81E090E0BF
:100980008C0F9D1FE80FF91F83E0808301C0AC012D
:10099000332309F4EBC0E1E0F0E0EC0FFD1FE40FBE
:1009A000F51F69E06083E2E0F0E0EC0FFD1FE40F6B
:1009B000F51F81E08083E3E0F0E0EC0FFD1FE40F22
:1009C000F51F96E19083FE01E40FF51F848380E814
:1009D000FE01E40FF51F858386E2FE01E40FF51F9B
:1009E00086838FEFFE01E40FF51F87838FE7FE01FB
:1009F000E40FF51F808785E7FE01E40FF51F81876F
:100A000080E1FE01E40FF51F828785E9FE01E40F16
:100A1000F51F8387FE01E40FF51F348781EAFE018D
:100A2000E40FF51F8587CA010E96FE01E40FF51F3E
:100A30001686EE2069F0E1E0F0E0EC0FFD1FE80F14
:100A4000F91F60830296FE01E40FF51F30E3308B3F
:100A5000CC2099F0FC013196A1E0B0E0AC0FBD1FB5
:100A6000A80FB91F39E03C930296A1E0B0E0AC0FAB
:100A7000BD1FEA0FFB1F31E33083AA2099F0FC0170
:100A80003196A1E0B0E0AC0FBD1FA80FB91F39E04F
:100A90003C93029641E050E04C0F5D1FE40FF51FC0
:100AA00032E33083882099F0FC013196A1E0B0E078
:100AB000AC0FBD1FA80FB91F39E03C930296A1E00F
:100AC000B0E0AC0FBD1FEA0FFB1F33E33083C4550A
:100AD000DF4FB881CC5AD040BB2399F0FC0131964E
:100AE000A1E0B0E0AC0FBD1FA80FB91F39E03C93E7
:100AF000029641E050E04C0F5D1FE40FF51F34E318
:100B00003083C355DF4F5881CD5AD040552399F0DB
:100B1000FC013196A1E0B0E0AC0FBD1FA80FB91FDA
:100B200039E03C930296A1E0B0E0AC0FBD1FEA0FA4
:100B3000FB1F35E33083E1E0F0E0EC0FFD1FE80F31
:100B4000F91F31E83083E2E0F0E0EC0FFD1FE80F21
:100B5000F91F32E03083AC014D5F5F4FE3E0F0E01E
:100B6000EC0FFD1FE80FF91F30EC3083772309F4F9
:100B7000E7C085E0E1E0F0E0EC0FFD1FE40FF51FBA
:100B80008083E2E0F0E0EC0FFD1FE40FF51F82E050
:100B90008083E3E0F0E0EC0FFD1FE40FF51F86E13A
:100BA000808381E0FE01E40FF51F848380E8FE016D
:100BB000E40FF51F858386E2FE01E40FF51F8683AF
:100BC0008FEFFE01E40FF51F87838FE7FE01E40F2F
:100BD000F51F808785E7FE01E40FF51F818780E11F
:100BE000FE01E40FF51F828785E9FE01E40FF51F82
:100BF0008387FE01E40FF51F748781EAFE01E40F8D
:100C0000F51F8587CA010E96FE01E40FF51F1686B3
:100C1000C255DF4FB881CE5AD040BB2371F0E1E01E
:100C2000F0E0EC0FFD1FE80FF91F39E0308302966A
:100C3000FE01E40FF51F3AEB308BC155DF4FE88121
:100C4000CF5AD040EE2399F0FC013196A1E0B0E0FC
:100C5000AC0FBD1FA80FB91F39E03C93029641E0CD
:100C600050E04C0F5D1FE40FF51F3BEB3083C05588
:100C7000DF4F5881C05BD040552399F0FC0131967D
:100C8000A1E0B0E0AC0FBD1FA80FB91F39E03C9345
:100C90000296A1E0B0E0AC0FBD1FEA0FFB1F34ECE1
:100CA0003083CF54DF4FB881C15BD040BB2399F074
:100CB000FC013196A1E0B0E0AC0FBD1FA80FB91F39
:100CC00039E03C93029641E050E04C0F5D1FE40F89
:100CD000F51F35EC3083CE54DF4F5881C25BD040D6
:100CE000552399F0FC013196A1E0B0E0AC0FBD1F97
:100CF000A80FB91F39E03C930296A1E0B0E0AC0F19
:100D0000BD1FEA0FFB1F38EC3083E1E0F0E0EC0F91
:100D1000FD1FE80FF91F31E83083E2E0F0E0EC0F4F
:100D2000FD1FE80FF91F32E03083AC014D5F5F4FCC
:100D3000E3E0F0E0EC0FFD1FE80FF91F30EC30832B
:100D4000E1E0F0E0EC0FFD1FE40FF51F80EC808385
:100D50007A01BFEFEB1AFB0AC701C956DF4F2883A0
:100D6000C759D0400E947F116C01A701BE016F5F7F
:100D70007F4F0E942B1587E090E00E947D118C012F
:100D8000FC0111821082D382C282F582E482168233
:100D90000E94580BB8010E94E90AC956DF4F28810A
:100DA000C759D0402223C9F0D3015D969C915D972D
:100DB000892F869586958695977019F45E968C9303
:100DC00003C08F5FF301868FD3015E968C9190E014
:100DD0000E947F11F301938F828FF301E15BFF4F3C
:100DE00091E0D3015F968C91811101C090E0D30115
:100DF0005E968C915E97890F890D808311961C9267
:100E00001E9213961C921E92129715961C921E9279
:100E1000149717961C921E92169719961C921E9262
:100E200018971B961C921E921A971D961C921E9242
:100E30001C971F961C921E921E9751961C921E92F2
:100E4000509753961C921E92529755961C921E9242
:100E500054978FEF9FEF57969C938E935697599682
:100E60009C938E93589780E090E0F301268D30E0BC
:100E70008217930754F4D3015A96ED91FC915B9736
:100E8000E80FF91F10820196F0CFC956DF4F0FB659
:100E9000F894DEBF0FBECDBFDF91CF911F910F91B0
:100EA000FF90EF90DF90CF90BF90AF909F908F908A
:100EB0007F906F905F904F903F902F9008954F924A
:100EC0005F926F927F92AF92BF92CF92DF92EF923A
:100ED000FF920F931F93CF93DF93C901D601E501D2
:100EE000201731071CF02901980101C02801662351
:100EF000E1F1F22FE32F2417350714F4F42FE52F37
:100F00006F2F7E2F461657060CF4B20108171907EB
:100F100034F4C201861B970BBC01620F731F57018B
:100F2000CC24B7FCC094DC2C72010027F7FC0095A0
:100F3000102F442737FD4095542F882777FD809543
:100F4000982F2D01662457FC6094762C7F926F9227
:100F50005F924F920E942211688379830F900F90C5
:100F60000F900F9082E090E002C080E090E0DF916F
:100F7000CF911F910F91FF90EF90DF90CF90BF9096
:100F8000AF907F906F905F904F900895AF92BF9217
:100F9000CF92DF92EF92FF920F931F935701CC24D1
:100FA000CA947FE7D72EEE24E394E0E8FE2E0E9459
:100FB0005F071F910F91FF90EF90DF90CF90BF9050
:100FC000AF900895AF92BF92CF92DF92EF92FF92CF
:100FD0000F931F935701CC24CA94FFE7DF2EEE2412
:100FE000E394A0E8FA2E0E945F071F910F91FF90F3
:100FF000EF90DF90CF90BF90AF9008954F925F92A7
:101000006F927F928F929F92AF92BF92CF92DF9218
:10101000EF92FF920F931F93CF93DF931F92CDB761
:10102000DEB76C014DB65EB63C012FE4620E711C5A
:10103000D3018C91EDB7FEB7E81BF1090FB6F89418
:10104000FEBF0FBEEDBF2DB73EB72F5F3F4F59011B
:10105000812C912CD6015E968C915E9790E088163B
:1010600099067CF4D6015A96ED91FC915B97E80DB8
:10107000F91D8081F90181939F01FFEF8F1A9F0A6B
:10108000E9CF94015F968C915F97882361F1569622
:101090008D919C91579797FD0AC068E671E00E9478
:1010A0007B136DE270E00E947B13462F01C048E085
:1010B000F601808D918D97FD09C068E671E00E9470
:1010C0007B136DE270E00E947B1301C068E0FFEFCC
:1010D0008F1A9F0AF501E20FF31F20E1629FC00102
:1010E0001124842B80837501E80CF91CD601949699
:1010F0000D911C91959792962D913C9193974D91BE
:101100005C91119790966C916170C6010E94C60720
:10111000880E991E7501E80CF91CF60100A511A5B1
:1011200026A137A14281538160A166956170C601F5
:101130000E94C607880E991E7501E80CF91CD6019D
:101140009C960D911C919D979A962D913C919B9701
:1011500014964D915C91159790966C9162FB662761
:1011600060F9C6010E94C607880E991E7501E80C39
:10117000F91CF60100A911A926A537A546815781BA
:1011800060A163FB662760F9C6010E94C607880E4E
:10119000991E7501E80CF91CD601D4960D911C918D
:1011A000D597D2962D913C91D39718964D915C91FD
:1011B000199790966C9162956170C6010E94C6075E
:1011C000880E991E7501E80CF91CF60100AD11ADF1
:1011D00026A937A94285538560A165FB662760F97A
:1011E000C6010E94C607880E991E7501E80CF91CFD
:1011F000D601DC960D911C91DD97DA962D913C91EC
:10120000DB971E964D915C911F9791966C91617042
:10121000C6010E94E207880E991E7501E80CF91CB0
:10122000F601E05CFF4F00811181F60126AD37AD7C
:101230004485558561A166956170C6010E94E207EB
:10124000880E991E7501E80CF91CF601EC5BFF4F46
:1012500000811181329720813181D60150964D91C4
:101260005C91519791966C9162FB662760F9C6017B
:101270000E94E207880E991E7501E80CF91CF60120
:10128000E85BFF4F00811181329720813181F601A7
:101290004289538961A163FB662760F9C6010E94F8
:1012A000E2077401E80EF91EEA0CFB1CF601E45B90
:1012B000FF4F00811181329720813181D6015496F0
:1012C0004D915C91559791966C9162956170C601B4
:1012D0000E94E207F301E080F12CF601E25BFF4F90
:1012E000608169830E94580B9701A50169810E9462
:1012F000060B0FB6F8945EBE0FBE4DBE0F90DF9189
:10130000CF911F910F91FF90EF90DF90CF90BF9002
:10131000AF909F908F907F906F905F904F900895C7
:10132000FC01648F0C94FE07DC015D962C915D97A7
:101330006217F8F4262F2695269526955A96ED9154
:10134000FC915B97E20FF11D262F277041E050E0E2
:1013500060E070E004C0440F551F661F771F2A9598
:10136000D2F72081242B20835C962C9121110C94A0
:10137000FE070895DC015D962C915D97621700F5DC
:10138000262F2695269526955A96ED91FC915B97EA
:10139000E20FF11D262F277041E050E060E070E081
:1013A00004C0440F551F661F771F2A95D2F740953A
:1013B0002081242320835C962C9121110C94FE071C
:1013C0000895411102C00C94BA090C949409FC01CF
:1013D00071836083248D21110C94FE070895FC0114
:1013E00073836283248D21110C94FE070895FC0100
:1013F00077836683248D21110C94FE070895FC01E8
:1014000071876087248D21110C94FE070895FC01DB
:1014100077876687248D21110C94FE070895FC01BF
:1014200075876487248D21110C94FE070895FB01B4
:1014300028E4208329E4218324E42283DC011D960F
:101440002C911D972F702F5B23831D968D919C915E
:101450001E9724E0969587952A95E1F78F708F5B0C
:10146000848385E00895CF93DF93CDB7DEB7699786
:101470000FB6F894DEBF0FBECDBFFC01DB018C912F
:101480008F5F8C93BE016F5F7F4F89E1DB011D92FF
:101490008A95E9F799E0998384E08A8321E02D8396
:1014A00083E08E839A8791E29B872C872D872F87F5
:1014B00092E2988B97E09B8B95E09C8B8E8B80E4DF
:1014C00090E0988F8F8B298F82818B83958586857D
:1014D000998B8A8B838180688D8B49E150E080E015
:1014E0000E94D10E69960FB6F894DEBF0FBECDBF35
:1014F000DF91CF910895DC01FB0112962C91129798
:1015000030E08481958128173907D1F49181808159
:10151000813A31F481E0913091F0933089F411C037
:10152000813271F49B3021F482811F968C9305C027
:101530009A3031F4828150968C9381E00895089519
:1015400080E00895EF92FF920F931F93CF93DF9364
:101550007C01FB018081813899F58381823281F59C
:10156000D70112968C91129790E02481358128172B
:10157000390731F51B96CD91DC911C9700E010E006
:101580002097B1F04C815D816A817B818E818823B7
:1015900011F080E801C080E00E94D10E8F3FBFEFC4
:1015A0009B0759F0080F191F0990D881C02DE8CF6B
:1015B00081E0F7018787C80105C08FEF9FEF02C068
:1015C00080E090E0DF91CF911F910F91FF90EF901D
:1015D0000895FC01A385B485109719F47487638777
:1015E00009C08D919C911197009711F0DC01F9CF02
:1015F0006D937C9385859685DB0114962D913C91A6
:101600001597820F931F968785870895AF92BF9293
:10161000CF92DF92EF92FF920F931F93CF93DF93BE
:101620001F92CDB7DEB77C0169836A01590141E0A1
:1016300050E0BE016F5F7F4FFC0183810E94360E38
:101640008C0197FD0BC0F7018381A501B601806471
:101650000E94360E97FD02C0800F911F0F90DF9100
:10166000CF911F910F91FF90EF90DF90CF90BF909F
:10167000AF900895CF93DF93EC0121E02C832D836D
:101680000A969F838E831986188681E291E099835A
:1016900088831C861B861E861D862F87288B81ECDF
:1016A0008A870E94E00CBE01DF91CF910C94990CC7
:1016B0008091AE01811107C08DE991E00E943A0B43
:1016C00081E08093AE018DE991E0089590E0FC0106
:1016D0003197EF30F105B0F5EA5AFF4F0C94AE1395
:1016E000809180008F7703C0809180008F7D8093F0
:1016F0008000089580918000877FF9CF84B58F772F
:1017000002C084B58F7D84BD0895809190008F774D
:1017100007C0809190008F7D03C080919000877FEB
:101720008093900008958091C0008F7703C08091CE
:10173000C0008F7D8093C00008958091C200877F94
:101740008093C2000895CF93DF9390E0FC01E851AD
:10175000FF4F2491FC01EA5FFE4F8491882349F1F9
:1017600090E0880F991FFC01EE5CFE4FA591B491AB
:101770008C5D9E4FFC01C591D4919FB7611108C04B
:10178000F8948C91209582238C93888182230AC0BF
:10179000623051F4F8948C91322F309583238C93DE
:1017A0008881822B888304C0F8948C91822B8C933F
:1017B0009FBFDF91CF9108950F931F93CF93DF9336
:1017C0001F92CDB7DEB7282F30E0F901E653FF4F67
:1017D0008491F901E851FF4F1491F901EA5FFE4F3E
:1017E00004910023C9F0882321F069830E94660BCD
:1017F0006981E02FF0E0EE0FFF1FEC5DFE4FA59139
:10180000B4919FB7F8948C91611103C01095812316
:1018100001C0812B8C939FBF0F90DF91CF911F91BF
:101820000F910895EF92FF920F931F93CF93DF9341
:101830007B01FC01C281D38100E010E0209781F0A0
:10184000E881F9810280F381E02DB701CE0109958D
:1018500097FD08C0080F191F0884D985C02DEECF49
:10186000C80102C08FEF9FEFDF91CF911F910F91C1
:10187000FF90EF9008950F931F93CF93DF938B0109
:10188000FC01C281D381209771F0E881F981048045
:10189000F581E02DB801CE010995009731F4088457
:1018A000D985C02DF0CF80E090E0DF91CF911F91DE
:1018B0000F9108950F931F93CF93DF938B01FC013A
:1018C000C281D381209771F0E881F9810680F78188
:1018D000E02DB801CE010995080F111D0884D985A6
:1018E000C02DF0CFF8011082DF91CF911F910F91A1
:1018F00008950F931F93CF93DF938B01FC01C28157
:10190000D381209771F0E881F9810190F081E02D79
:10191000B801CE010995811106C00884D985C02D72
:10192000F0CF80E001C081E0DF91CF911F910F9156
:101930000895CF93DF93FC01DB01218114968C91F4
:10194000149790E0820F911D0897B4F5C281D3815E
:10195000209719F47383628308C08885998500975E
:1019600011F0EC01FACFB987A887808112968C9389
:101970001297818113968C931397808115969C9171
:101980001597890F808380E014969C91149789178E
:1019900088F41696CD91DC911797C80FD11D9881C8
:1019A000C181D0E0C65FDE4F988391819F5F9183B4
:1019B0008F5FEACF81E001C080E0DF91CF91089591
:1019C0008091BA0181110DC082E08093B60184E05C
:1019D0008093B7011092B9011092B80181E0809311
:1019E000BA0186EB91E00895615030F02091F1004A
:1019F000FC0120830196F8CF289A84E68093CB01DE
:101A000008954091C6015091C7012091C4013091C1
:101A1000C50142175307B4F49091E8009570E1F3C3
:101A20009091E80092FD19C08093F1008091C60169
:101A30009091C70101968F739927892B19F48EEF26
:101A40008093E8008091C6019091C7010196909320
:101A5000C7018093C60181E0089580E00895CF9288
:101A6000DF92EF92FF920F931F93CF93DF931F921A
:101A7000CDB7DEB7082F162FF42E862F880F8E5F76
:101A800099830E94010D83E00E94010DE02EC02E7B
:101A90009981D92E8C2D8E19811798F4F601F7FEB5
:101AA00002C0849101C080810E94010D082F80E056
:101AB0000E94010D8023FFEFCF1ADF0A8111EACFC8
:101AC00001C081E00F90DF91CF911F910F91FF90A6
:101AD000EF90DF90CF9008958091D7008160809340
:101AE000D70080EA8093D80089B5806189BD89B527
:101AF000826089BD09B400FEFDCF61E070E080E046
:101B000090E00E94EE118091D8008F7C80618093DC
:101B1000D8008091E000807F8093E0000895CF930B
:101B2000DF931F92CDB7DEB71982CE0101960E94D6
:101B3000C9120E94E00CBE016F5F7F4F0E94120C21
:101B400089810F90DF91CF9108952FB7FC012083F9
:101B5000F89467706093E9000895CF93DF931F9224
:101B6000CDB7DEB7682FCE0101960E94A50D8091FA
:101B7000F20099819FBF0F90DF91CF910895FF925E
:101B80000F931F93CF93DF9300D0CDB7DEB7F62E20
:101B90008A019091CA01992311F057FF03C08FEF7A
:101BA0009FEF2BC0682FCE0101967A830E94A50D6E
:101BB0008091F20090E0A8017A81801791070CF4DF
:101BC000AC01EF2DF72FF40E84E6FE1639F0289ABB
:101BD0008093CB019091F1009193F7CF411551057E
:101BE00021F08091F200882321F089818FBFCA0102
:101BF00004C08BE68093E800F8CF0F900F90DF9140
:101C0000CF911F910F91FF900895CF93DF931F9273
:101C1000CDB7DEB741E050E0BE016F5F7F4F0E945D
:101C2000BF0D019719F4898190E002C08FEF9FEFFB
:101C30000F90DF91CF910895CF93DF931F92CDB78F
:101C4000DEB7682FCE0101960E94A50D9091E800A5
:101C5000892F807295FF04C09091F20080E4891B67
:101C600099819FBF0F90DF91CF9108956F927F92DE
:101C70008F929F92AF92BF92CF92DF92EF92FF929C
:101C80000F931F93CF93DF931F92CDB7DEB7782EBC
:101C90007B01C42EB52E8091CA01882369F0042FE0
:101CA000152F8AEFD82E872D8072982E9AE3A92EB1
:101CB000872D8074882E11C08FEF9FEF57C0872D1E
:101CC0000E941C0E682E81110CC0DA94A9F361E009
:101CD00070E080E090E00E94EE110115110579F7A7
:101CE0003BC0282F30E0021713070CF4602E672D3D
:101CF000CE0101960E94A50D8091E80085FF29C0C4
:101D0000262D30E0021B130B992039F06A948FEFD7
:101D10006816B1F01092F100F9CFF701862D77FE29
:101D200007C0815058F094919093F1003196F9CF0B
:101D3000815020F091919093F100FACFE20EF31EC2
:101D40008091E80085FF0FC00115110511F4811085
:101D50000AC089818FBFC1CF5D9A84E68093CC0190
:101D60008C2D9B2D03C0A092E800F3CF0F90DF9144
:101D7000CF911F910F91FF90EF90DF90CF90BF9088
:101D8000AF909F908F907F906F9008951092E90090
:101D90001092C7011092C6019093C5018093C401AF
:101DA0000895CF92DF92FF920F931F93CF93DF930B
:101DB00000D0CDB7DEB7F82E8A016B0101151105F1
:101DC000B1F0F601F7FE02C0849101C08081498321
:101DD0005A830E94010D01501109FFEFCF1ADF0A4B
:101DE00049815A818111EACF8FEF9FEF01C0CA016B
:101DF0000F900F90DF91CF911F910F91FF90DF9087
:101E0000CF9008951F93CF93DF931F92CDB7DEB786
:101E1000162F2091E80022FFFCCF612F79830E94CA
:101E2000F40C8BEF8093E800812F7981972F0F902E
:101E3000DF91CF911F9108951F920F920FB60F92CD
:101E40001124DF92EF92FF920F931F932F933F93F2
:101E50004F935F936F937F938F939F93AF93BF93B2
:101E6000EF93FF93CF93DF93CDB7DEB76C97DEBFD1
:101E7000CDBF1092E9008091E80083FF23C168E0A4
:101E8000CE0145960E94F40C82EF8093E8003D89D4
:101E900037FF05C08091E80080FFFCCF03C08EEFC4
:101EA0008093E800832F807609F0F0C02E894F8957
:101EB000D88C21110CC0303829F48091C90180934D
:101EC000F10002C01092F1001092F100F4C0842FD2
:101ED00090E09D29213049F43111EDC0019709F0BE
:101EE000EAC08091C9018D7F0AC0233059F43111B5
:101EF000E2C0019709F0DFC08091C9018260809340
:101F0000C901D9C0253041F48091E80080FFFCCFA1
:101F100040684093E300CFC0263009F08DC0EB8CC1
:101F2000FC8C22E0D2122CC080E090E00E94C60E11
:101F30000E948F0D99E08E010F5F1F4FF801292F2E
:101F400011922A95E9F79983DA8291E09E8390EACB
:101F500098879AEF99872091C6013091C701275F32
:101F60003F4F3C832B838D83C7010E94C60E49E0FF
:101F700050E0B80180E00E94D10E0E948F0D9BC0FE
:101F8000C7010E94C60E0E94E00CBE016B5E7F4F2F
:101F90000E943B0C009719F00CF08DC090C081E0BE
:101FA000D8120EC08B8D9C8D089719F481E0809318
:101FB000C3018091C30181112FC062E571E031C07E
:101FC000E3E0DE127CC08F89882349F1823029F456
:101FD00040E86DE080E791E01CC0813029F440E8E2
:101FE0006BE084E691E015C0833009F068C00E9480
:101FF000E00C8E010F5F1F4FB8010E945A0CF801D0
:1020000001900020E9F73197E01BF10B40E06E2FC3
:10201000C8010E942F0D4DC060E471E002C06EE760
:1020200071E06115710509F44AC0FB01449150E06B
:1020300080E80E94D10E3FC0273009F440C028300C
:1020400021F481E08093F10036C02930A1F533708E
:10205000B1F5EBE0F1E081E021E036E390819923F6
:1020600061F08093E9002093EB0091919093EC0054
:102070003093ED008F5F873089F78EE78093EA0019
:102080001092EA008F898093CA0115C08B8D9C8DB8
:102090000E94C60E898D811105C0CE0145960E9411
:1020A000D41207C00E94E00CBE016B5E7F4F0E94FD
:1020B000790C882321F08EEF8093E80003C081E241
:1020C0008093EB006C960FB6F894DEBF0FBECDBFC9
:1020D000DF91CF91FF91EF91BF91AF919F918F9140
:1020E0007F916F915F914F913F912F911F910F9130
:1020F000FF90EF90DF900F900FBE0F901F901895FC
:102100008093E9008091F200882319F08AE380939C
:10211000E80008951F920F920FB60F9211242F938B
:102120003F934F935F936F937F938F939F93AF935F
:10213000BF93CF93EF93FF93C091E1008091E100B3
:10214000837F8093E1008093E100C3FF0FC0109272
:10215000E90081E08093EB001092EC0082E3809331
:10216000ED001092CA0188E08093F000C2FF19C010
:1021700083E00E9480108091CC01882339F0809107
:10218000CC0181508093CC01882389F18091CB01CF
:10219000882339F08091CB0181508093CB01882333
:1021A00041F1C4FF10C08091E2008E7E8160809377
:1021B000E2008091E1008F7E8093E1008091C80170
:1021C0008E7E806111C0C0FF16C08091E2008E7EBD
:1021D00080618093E2008091E1008E7E8093E10037
:1021E0008091C8018E7E81608093C80104C05D9893
:1021F000CDCF2898D6CFFF91EF91CF91BF91AF91DE
:102200009F918F917F916F915F914F913F912F910E
:102210000F900FBE0F901F9018951092CA01109248
:10222000C9011092C8010E946C0DE1EEF0E08081BE
:102230008E7E80838DE08093E200559A209A5D988F
:10224000289808954F925F926F927F92AF92BF92BB
:10225000CF92DF92EF92FF920F931F93CF93DF9372
:10226000CDB7DEB729013A01621B730B840B950BC6
:1022700029893A894B895C892A193B094C095D09EE
:10228000298B3A8B4B8B5C8B9B01AC0169897A89DA
:102290008B899C890E946B13E418F50806091709BD
:1022A000A80197010E948F132A0D3B1D4C1D5D1D37
:1022B000CA01B901DF91CF911F910F91FF90EF906B
:1022C000DF90CF90BF90AF907F906F905F904F90D6
:1022D000089508950E9416120E94691182EC91E0FF
:1022E0000E940D110E942601C0E0D0E00E94F7017B
:1022F0002097E1F30E940000F9CF0C9404140C9491
:1023000004141F920F920FB60F9211242F933F9334
:102310008F939F93AF93BF938091CE019091CF0104
:10232000A091D001B091D1013091CD0123E0230FD4
:102330002D3720F40196A11DB11D05C026E8230FFD
:102340000296A11DB11D2093CD018093CE019093E3
:10235000CF01A093D001B093D1018091D20190918F
:10236000D301A091D401B091D5010196A11DB11D59
:102370008093D2019093D301A093D401B093D5015F
:10238000BF91AF919F918F913F912F910F900FBE71
:102390000F901F9018953FB7F8948091D2019091BB
:1023A000D301A091D401B091D50126B5A89B05C059
:1023B0002F3F19F00196A11DB11D3FBF6627782F51
:1023C000892F9A2F620F711D811D911D42E0660FAA
:1023D000771F881F991F4A95D1F70895CF92DF92F2
:1023E000EF92FF92CF93DF936B017C010E94CB11A0
:1023F000EB01C114D104E104F10489F00E946A13D5
:102400000E94CB116C1B7D0B683E734090F381E002
:10241000C81AD108E108F108C851DC4FEACFDF91B2
:10242000CF91FF90EF90DF90CF900895789484B58E
:10243000826084BD84B5816084BD85B5826085BDC0
:1024400085B5816085BDEEE6F0E0808181608083A6
:10245000E1E8F0E010828081826080838081816089
:102460008083E0E8F0E0808181608083E1E9F0E052
:10247000808182608083808181608083E0E9F0E0F8
:10248000808181608083E1ECF0E0808184608083E2
:10249000808182608083808181608083E3ECF0E0D2
:1024A000808181608083E0ECF0E0808182608083C5
:1024B000E2ECF0E0808181608083EAE7F0E08081F7
:1024C000846080838081826080838081816080835A
:1024D0008081806880830895CF93DF931F92CDB76A
:1024E000DEB76983DC01ED91FC910280F381E02D80
:1024F00041E050E0BE016F5F7F4F09950F90DF9183
:10250000CF910895CF93DF93EC018C859D8597FF44
:1025100005C082E00E94050E9D878C878C859D8575
:10252000DF91CF91089583E00C948010FC018485A5
:10253000958597FD06C082E00E94AD0D90E0019662
:10254000089582E00E94AD0D90E00895FC0184851D
:10255000958597FD05C02FEF3FEF358724870895B8
:1025600082E00C94050ECF93DF93EC0180911C0167
:10257000882331F083E00E94360E1816190634F0D5
:1025800081E090E09B838A8380E090E0DF91CF91AF
:102590000895FC0120812E5F208342E450E062E830
:1025A00071E080E80C94D10EFC0121818081813A98
:1025B00059F4213209F05CC047E050E065E171E078
:1025C00080E00E94D10E67C0813209F051C02332F1
:1025D00089F4838190E0982F88273281832BA0E0B3
:1025E000B0E08093110190931201A0931301B09376
:1025F00014010FC0203239F467E070E085E191E00A
:102600000E94020F0AC0223221F4828180931C01B1
:1026100004C02D7F203209F03EC0809115019091B9
:102620001601A0911701B0911801803B9440A105BB
:10263000B10501F580911C0180FD1CC0809100084E
:10264000909101089093FF0A8093FE0A87E797E72D
:1026500090930108809300082BE088E190E00FB68A
:10266000F894A895809360000FBE2093600013C07B
:1026700080E0089588E10FB6F8948093600010928E
:1026800060000FBEA8958091FE0A9091FF0A90937A
:1026900001088093000881E008951092D9011092FA
:1026A000D80188EE93E0A0E0B0E08093DA01909347
:1026B000DB01A093DC01B093DD018DE291E090930A
:1026C000D7018093D6018FEF9FEF9093E301809322
:1026D000E20108950895DB018F939F930E94B41344
:1026E000BF91AF91A29F800D911DA39F900DB29FAE
:1026F000900D1124089597FB072E16F4009407D02F
:1027000077FD09D00E94BF1307FC05D03EF49095D9
:1027100081959F4F0895709561957F4F0895052E7F
:1027200097FB1EF400940E94A61357FD07D00E9449
:10273000D31307FC03D04EF40C94A6135095409588
:10274000309521953F4F4F4F5F4F0895909580955D
:10275000709561957F4F8F4F9F4F0895EE0FFF1F2C
:102760000590F491E02D09940E94F513A59F900D1A
:10277000B49F900DA49F800D911D11240895AA1B54
:10278000BB1B51E107C0AA1FBB1FA617B70710F05C
:10279000A61BB70B881F991F5A95A9F7809590958E
:1027A000BC01CD010895A1E21A2EAA1BBB1BFD019D
:1027B0000DC0AA1FBB1FEE1FFF1FA217B307E40720
:1027C000F50720F0A21BB30BE40BF50B661F771F78
:1027D000881F991F1A9469F7609570958095909558
:1027E0009B01AC01BD01CF010895A29FB001B39F31
:1027F000C001A39F700D811D1124911DB29F700D0A
:10280000811D1124911D0895CF93DF93823091058E
:1028100010F482E090E0E0912802F091290220E09B
:1028200030E0A0E0B0E0309739F1408151814817A5
:102830005907B8F04817590771F4828193811097AE
:1028400029F013969C938E9312972CC09093290293
:102850008093280227C02115310531F04217530714
:1028600018F0A901DB0101C0EF019A01BD01DF01F0
:102870000280F381E02DD7CF21153105F9F0281B17
:10288000390B2430310580F48A819B8161157105F3
:1028900021F0FB019383828304C0909329028093EB
:1028A0002802FE01329644C0FE01E20FF31F81931D
:1028B000919322503109398328833AC0209126020E
:1028C00030912702232B41F4209102013091030122
:1028D00030932702209326022091000130910101BC
:1028E0002115310541F42DB73EB7409104015091B7
:1028F0000501241B350BE0912602F0912702E21717
:10290000F307A0F42E1B3F0B2817390778F0AC0112
:102910004E5F5F4F2417350748F04E0F5F1F5093EF
:102920002702409326028193919302C0E0E0F0E0F9
:10293000CF01DF91CF910895CF93DF93009709F4F2
:1029400087C0FC01329713821282C0912802D09175
:102950002902209781F420813181280F391F80912D
:102960002602909127028217930779F5F0932702A8
:10297000E09326026DC0DE0120E030E0AE17BF0715
:1029800050F412964D915C9113979D01411551059C
:1029900009F1DA01F3CFB383A28340815181840F1F
:1029A000951F8A179B0771F48D919C911197840F45
:1029B000951F02969183808312968D919C91139717
:1029C000938382832115310529F4F0932902E09342
:1029D00028023EC0D9011396FC93EE9312974D91B5
:1029E0005D91A40FB51FEA17FB0779F480819181EF
:1029F000840F951F0296D90111969C938E93828124
:102A0000938113969C938E931297E0E0F0E08A8175
:102A10009B81009719F0FE01EC01F9CFCE010296DF
:102A200028813981820F931F20912602309127023D
:102A30002817390769F4309729F410922902109267
:102A4000280202C013821282D0932702C09326026A
:102A5000DF91CF910895FB01DC0102C001900D923E
:0C2A600041505040D8F70895F894FFCF83
:102A6C0000002A0280000100000000C180810000EB
:102A7C0000FFFFFFFF00E10000000000000000006D
:102A8C00007B0A330AA20A170A000000006C12B37A
:0A2A9C00129612A612821293120085
:00000001FF
